{
  "abi": [
    {
      "type": "function",
      "name": "createSongContract",
      "inputs": [
        {
          "name": "name",
          "type": "string",
          "internalType": "string"
        },
        {
          "name": "price",
          "type": "uint256",
          "internalType": "uint256"
        }
      ],
      "outputs": [],
      "stateMutability": "nonpayable"
    },
    {
      "type": "function",
      "name": "getSong",
      "inputs": [
        {
          "name": "index",
          "type": "uint256",
          "internalType": "uint256"
        }
      ],
      "outputs": [
        {
          "name": "",
          "type": "address",
          "internalType": "contract EchonomySong"
        }
      ],
      "stateMutability": "view"
    },
    {
      "type": "function",
      "name": "getSongCount",
      "inputs": [],
      "outputs": [
        {
          "name": "",
          "type": "uint256",
          "internalType": "uint256"
        }
      ],
      "stateMutability": "view"
    },
    {
      "type": "function",
      "name": "getSongOwner",
      "inputs": [
        {
          "name": "index",
          "type": "uint256",
          "internalType": "uint256"
        }
      ],
      "outputs": [
        {
          "name": "",
          "type": "address",
          "internalType": "address"
        }
      ],
      "stateMutability": "view"
    },
    {
      "type": "function",
      "name": "getSongPrice",
      "inputs": [
        {
          "name": "index",
          "type": "uint256",
          "internalType": "uint256"
        }
      ],
      "outputs": [
        {
          "name": "",
          "type": "uint256",
          "internalType": "uint256"
        }
      ],
      "stateMutability": "view"
    },
    {
      "type": "function",
      "name": "mintSong",
      "inputs": [
        {
          "name": "index",
          "type": "uint256",
          "internalType": "uint256"
        },
        {
          "name": "to",
          "type": "address",
          "internalType": "address"
        }
      ],
      "outputs": [],
      "stateMutability": "payable"
    },
    {
      "type": "function",
      "name": "withdraw",
      "inputs": [],
      "outputs": [],
      "stateMutability": "nonpayable"
    }
  ],
  "bytecode": {
    "object": "0x6080604052600160005534801561001557600080fd5b50611e3e806100256000396000f3fe608060405260043610620000795760003560e01c8063841759fc1162000054578063841759fc1462000114578063a90e815b146200014e578063ab4e2b2f1462000165578063ca487ad914620001a557600080fd5b80630d012e4c146200007e5780633ccfd60b14620000a557806342acaa6614620000bd575b600080fd5b3480156200008b57600080fd5b50620000a36200009d36600462000629565b620001bd565b005b348015620000b257600080fd5b50620000a362000294565b348015620000ca57600080fd5b50620000f7620000dc366004620006e8565b6000908152600160205260409020546001600160a01b031690565b6040516001600160a01b0390911681526020015b60405180910390f35b3480156200012157600080fd5b50620000f762000133366004620006e8565b6000908152600260205260409020546001600160a01b031690565b620000a36200015f36600462000702565b6200034d565b3480156200017257600080fd5b506200019662000184366004620006e8565b60009081526003602052604090205490565b6040519081526020016200010b565b348015620001b257600080fd5b506200019662000473565b60003083620001ce6000546200048b565b604051602001620001e0919062000766565b604051602081830303815290604052604051620001fd9062000605565b6200020b93929190620007ff565b604051809103906000f08015801562000228573d6000803e3d6000fd5b5060008054815260016020908152604080832080546001600160a01b0386166001600160a01b031991821617909155835484526002835281842080549091163317905582548352600390915281208490558054919250806200028a8362000859565b9190505550505050565b33600090815260046020526040902054806200030d5760405162461bcd60e51b815260206004820152602d60248201527f4563686f6e6f6d79536f6e6752656769737472793a206e6f207769746864726160448201526c7761626c652062616c616e636560981b60648201526084015b60405180910390fd5b336000818152600460205260408082208290555183156108fc0291849190818181858888f1935050505015801562000349573d6000803e3d6000fd5b5050565b6000828152600360205260409020543414620003c35760405162461bcd60e51b815260206004820152602e60248201527f4563686f6e6f6d79536f6e6752656769737472793a20696e636f72726563742060448201526d1c185e5b595b9d08185b5bdd5b9d60921b606482015260840162000304565b6000828152600260209081526040808320546001600160a01b03168352600490915281208054349290620003f990849062000875565b9091555050600082815260016020526040908190205490516340d097c360e01b81526001600160a01b0383811660048301529091169081906340d097c390602401600060405180830381600087803b1580156200045557600080fd5b505af11580156200046a573d6000803e3d6000fd5b50505050505050565b600060016000546200048691906200088b565b905090565b606060006200049a8362000525565b600101905060008167ffffffffffffffff811115620004bd57620004bd62000613565b6040519080825280601f01601f191660200182016040528015620004e8576020820181803683370190505b5090508181016020015b600019016f181899199a1a9b1b9c1cb0b131b232b360811b600a86061a8153600a8504945084620004f257509392505050565b60008072184f03e93ff9f4daa797ed6e38ed64bf6a1f0160401b8310620005655772184f03e93ff9f4daa797ed6e38ed64bf6a1f0160401b830492506040015b6d04ee2d6d415b85acef8100000000831062000592576d04ee2d6d415b85acef8100000000830492506020015b662386f26fc100008310620005b157662386f26fc10000830492506010015b6305f5e1008310620005ca576305f5e100830492506008015b6127108310620005df57612710830492506004015b60648310620005f2576064830492506002015b600a8310620005ff576001015b92915050565b61156780620008a283390190565b634e487b7160e01b600052604160045260246000fd5b600080604083850312156200063d57600080fd5b823567ffffffffffffffff808211156200065657600080fd5b818501915085601f8301126200066b57600080fd5b81358181111562000680576200068062000613565b604051601f8201601f19908116603f01168101908382118183101715620006ab57620006ab62000613565b81604052828152886020848701011115620006c557600080fd5b826020860160208301376000602093820184015298969091013596505050505050565b600060208284031215620006fb57600080fd5b5035919050565b600080604083850312156200071657600080fd5b8235915060208301356001600160a01b03811681146200073557600080fd5b809150509250929050565b60005b838110156200075d57818101518382015260200162000743565b50506000910152565b7f68747470733a2f2f6563686f6e6f6d792e76657263656c2e6170702f6170692f81526f76312f6e66742d6d657461646174612f60801b602082015260008251620007b981603085016020870162000740565b602f60f81b6030939091019283015250603101919050565b60008151808452620007eb81602086016020860162000740565b601f01601f19169290920160200192915050565b6001600160a01b03841681526060602082018190526000906200082590830185620007d1565b8281036040840152620008398185620007d1565b9695505050505050565b634e487b7160e01b600052601160045260246000fd5b6000600182016200086e576200086e62000843565b5060010190565b80820180821115620005ff57620005ff62000843565b81810381811115620005ff57620005ff6200084356fe60806040523480156200001157600080fd5b5060405162001567380380620015678339810160408190526200003491620001ff565b828260405160200162000048919062000289565b60408051601f198184030181528282019091526004825263534f4e4760e01b60208301529060006200007b838262000353565b5060016200008a828262000353565b5050506001600160a01b038116620000bc57604051631e4fbdf760e01b81526000600482015260240160405180910390fd5b620000c781620000e0565b506008620000d6828262000353565b505050506200041f565b600680546001600160a01b038381166001600160a01b0319831681179093556040519116919082907f8be0079c531659141344cd1fd0a4f28419497f9722a3daafe3b4186f6b6457e090600090a35050565b634e487b7160e01b600052604160045260246000fd5b60005b83811015620001655781810151838201526020016200014b565b50506000910152565b600082601f8301126200018057600080fd5b81516001600160401b03808211156200019d576200019d62000132565b604051601f8301601f19908116603f01168101908282118183101715620001c857620001c862000132565b81604052838152866020858801011115620001e257600080fd5b620001f584602083016020890162000148565b9695505050505050565b6000806000606084860312156200021557600080fd5b83516001600160a01b03811681146200022d57600080fd5b60208501519093506001600160401b03808211156200024b57600080fd5b62000259878388016200016e565b935060408601519150808211156200027057600080fd5b506200027f868287016200016e565b9150509250925092565b6e022b1b437b737b6bc9029b7b7339d1608d1b815260008251620002b581600f85016020870162000148565b91909101600f0192915050565b600181811c90821680620002d757607f821691505b602082108103620002f857634e487b7160e01b600052602260045260246000fd5b50919050565b601f8211156200034e576000816000526020600020601f850160051c81016020861015620003295750805b601f850160051c820191505b818110156200034a5782815560010162000335565b5050505b505050565b81516001600160401b038111156200036f576200036f62000132565b6200038781620003808454620002c2565b84620002fe565b602080601f831160018114620003bf5760008415620003a65750858301515b600019600386901b1c1916600185901b1785556200034a565b600085815260208120601f198616915b82811015620003f057888601518255948401946001909101908401620003cf565b50858210156200040f5787850151600019600388901b60f8161c191681555b5050505050600190811b01905550565b611138806200042f6000396000f3fe608060405234801561001057600080fd5b50600436106101165760003560e01c806370a08231116100a2578063a22cb46511610071578063a22cb46514610239578063b88d4fde1461024c578063c87b56dd1461025f578063e985e9c514610272578063f2fde38b1461028557600080fd5b806370a08231146101f7578063715018a6146102185780638da5cb5b1461022057806395d89b411461023157600080fd5b806323b872dd116100e957806323b872dd1461019857806340d097c3146101ab57806342842e0e146101be57806342966c68146101d15780636352211e146101e457600080fd5b806301ffc9a71461011b57806306fdde0314610143578063081812fc14610158578063095ea7b314610183575b600080fd5b61012e610129366004610d81565b610298565b60405190151581526020015b60405180910390f35b61014b6102ea565b60405161013a9190610dee565b61016b610166366004610e01565b61037c565b6040516001600160a01b03909116815260200161013a565b610196610191366004610e36565b6103a5565b005b6101966101a6366004610e60565b6103b4565b6101966101b9366004610e9c565b610444565b6101966101cc366004610e60565b61046d565b6101966101df366004610e01565b61048d565b61016b6101f2366004610e01565b610499565b61020a610205366004610e9c565b6104a4565b60405190815260200161013a565b6101966104ec565b6006546001600160a01b031661016b565b61014b610500565b610196610247366004610eb7565b61050f565b61019661025a366004610f09565b61051a565b61014b61026d366004610e01565b610531565b61012e610280366004610fe5565b610599565b610196610293366004610e9c565b6105c7565b60006001600160e01b031982166380ac58cd60e01b14806102c957506001600160e01b03198216635b5e139f60e01b145b806102e457506301ffc9a760e01b6001600160e01b03198316145b92915050565b6060600080546102f990611018565b80601f016020809104026020016040519081016040528092919081815260200182805461032590611018565b80156103725780601f1061034757610100808354040283529160200191610372565b820191906000526020600020905b81548152906001019060200180831161035557829003601f168201915b5050505050905090565b600061038782610605565b506000828152600460205260409020546001600160a01b03166102e4565b6103b082823361063e565b5050565b6001600160a01b0382166103e357604051633250574960e11b8152600060048201526024015b60405180910390fd5b60006103f083833361064b565b9050836001600160a01b0316816001600160a01b03161461043e576040516364283d7b60e01b81526001600160a01b03808616600483015260248201849052821660448201526064016103da565b50505050565b61044c610744565b600780546000918261045d83611052565b9190505590506103b08282610771565b6104888383836040518060200160405280600081525061051a565b505050565b6103b06000823361064b565b60006102e482610605565b60006001600160a01b0382166104d0576040516322718ad960e21b8152600060048201526024016103da565b506001600160a01b031660009081526003602052604090205490565b6104f4610744565b6104fe600061078b565b565b6060600180546102f990611018565b6103b03383836107dd565b6105258484846103b4565b61043e8484848461087c565b606061053c82610605565b5060006105476109a5565b905060008151116105675760405180602001604052806000815250610592565b80610571846109b4565b604051602001610582929190611079565b6040516020818303038152906040525b9392505050565b6001600160a01b03918216600090815260056020908152604080832093909416825291909152205460ff1690565b6105cf610744565b6001600160a01b0381166105f957604051631e4fbdf760e01b8152600060048201526024016103da565b6106028161078b565b50565b6000818152600260205260408120546001600160a01b0316806102e457604051637e27328960e01b8152600481018490526024016103da565b6104888383836001610a47565b6000828152600260205260408120546001600160a01b039081169083161561067857610678818486610b4d565b6001600160a01b038116156106b657610695600085600080610a47565b6001600160a01b038116600090815260036020526040902080546000190190555b6001600160a01b038516156106e5576001600160a01b0385166000908152600360205260409020805460010190555b60008481526002602052604080822080546001600160a01b0319166001600160a01b0389811691821790925591518793918516917fddf252ad1be2c89b69c2b068fc378daa952ba7f163c4a11628f55a4df523b3ef91a4949350505050565b6006546001600160a01b031633146104fe5760405163118cdaa760e01b81523360048201526024016103da565b6103b0828260405180602001604052806000815250610bb1565b600680546001600160a01b038381166001600160a01b0319831681179093556040519116919082907f8be0079c531659141344cd1fd0a4f28419497f9722a3daafe3b4186f6b6457e090600090a35050565b6001600160a01b03821661080f57604051630b61174360e31b81526001600160a01b03831660048201526024016103da565b6001600160a01b03838116600081815260056020908152604080832094871680845294825291829020805460ff191686151590811790915591519182527f17307eab39ab6107e8899845ad3d59bd9653f200f220920489ca2b5937696c31910160405180910390a3505050565b6001600160a01b0383163b1561043e57604051630a85bd0160e11b81526001600160a01b0384169063150b7a02906108be9033908890879087906004016110a8565b6020604051808303816000875af19250505080156108f9575060408051601f3d908101601f191682019092526108f6918101906110e5565b60015b610962573d808015610927576040519150601f19603f3d011682016040523d82523d6000602084013e61092c565b606091505b50805160000361095a57604051633250574960e11b81526001600160a01b03851660048201526024016103da565b805181602001fd5b6001600160e01b03198116630a85bd0160e11b1461099e57604051633250574960e11b81526001600160a01b03851660048201526024016103da565b5050505050565b6060600880546102f990611018565b606060006109c183610bc8565b600101905060008167ffffffffffffffff8111156109e1576109e1610ef3565b6040519080825280601f01601f191660200182016040528015610a0b576020820181803683370190505b5090508181016020015b600019016f181899199a1a9b1b9c1cb0b131b232b360811b600a86061a8153600a8504945084610a1557509392505050565b8080610a5b57506001600160a01b03821615155b15610b1d576000610a6b84610605565b90506001600160a01b03831615801590610a975750826001600160a01b0316816001600160a01b031614155b8015610aaa5750610aa88184610599565b155b15610ad35760405163a9fbf51f60e01b81526001600160a01b03841660048201526024016103da565b8115610b1b5783856001600160a01b0316826001600160a01b03167f8c5be1e5ebec7d5bd14f71427d1e84f3dd0314c0f7b2291e5b200ac8c7c3b92560405160405180910390a45b505b5050600090815260046020526040902080546001600160a01b0319166001600160a01b0392909216919091179055565b610b58838383610ca0565b610488576001600160a01b038316610b8657604051637e27328960e01b8152600481018290526024016103da565b60405163177e802f60e01b81526001600160a01b0383166004820152602481018290526044016103da565b610bbb8383610d06565b610488600084848461087c565b60008072184f03e93ff9f4daa797ed6e38ed64bf6a1f0160401b8310610c075772184f03e93ff9f4daa797ed6e38ed64bf6a1f0160401b830492506040015b6d04ee2d6d415b85acef81000000008310610c33576d04ee2d6d415b85acef8100000000830492506020015b662386f26fc100008310610c5157662386f26fc10000830492506010015b6305f5e1008310610c69576305f5e100830492506008015b6127108310610c7d57612710830492506004015b60648310610c8f576064830492506002015b600a83106102e45760010192915050565b60006001600160a01b03831615801590610cfe5750826001600160a01b0316846001600160a01b03161480610cda5750610cda8484610599565b80610cfe57506000828152600460205260409020546001600160a01b038481169116145b949350505050565b6001600160a01b038216610d3057604051633250574960e11b8152600060048201526024016103da565b6000610d3e8383600061064b565b90506001600160a01b03811615610488576040516339e3563760e11b8152600060048201526024016103da565b6001600160e01b03198116811461060257600080fd5b600060208284031215610d9357600080fd5b813561059281610d6b565b60005b83811015610db9578181015183820152602001610da1565b50506000910152565b60008151808452610dda816020860160208601610d9e565b601f01601f19169290920160200192915050565b6020815260006105926020830184610dc2565b600060208284031215610e1357600080fd5b5035919050565b80356001600160a01b0381168114610e3157600080fd5b919050565b60008060408385031215610e4957600080fd5b610e5283610e1a565b946020939093013593505050565b600080600060608486031215610e7557600080fd5b610e7e84610e1a565b9250610e8c60208501610e1a565b9150604084013590509250925092565b600060208284031215610eae57600080fd5b61059282610e1a565b60008060408385031215610eca57600080fd5b610ed383610e1a565b915060208301358015158114610ee857600080fd5b809150509250929050565b634e487b7160e01b600052604160045260246000fd5b60008060008060808587031215610f1f57600080fd5b610f2885610e1a565b9350610f3660208601610e1a565b925060408501359150606085013567ffffffffffffffff80821115610f5a57600080fd5b818701915087601f830112610f6e57600080fd5b813581811115610f8057610f80610ef3565b604051601f8201601f19908116603f01168101908382118183101715610fa857610fa8610ef3565b816040528281528a6020848701011115610fc157600080fd5b82602086016020830137600060208483010152809550505050505092959194509250565b60008060408385031215610ff857600080fd5b61100183610e1a565b915061100f60208401610e1a565b90509250929050565b600181811c9082168061102c57607f821691505b60208210810361104c57634e487b7160e01b600052602260045260246000fd5b50919050565b60006001820161107257634e487b7160e01b600052601160045260246000fd5b5060010190565b6000835161108b818460208801610d9e565b83519083019061109f818360208801610d9e565b01949350505050565b6001600160a01b03858116825284166020820152604081018390526080606082018190526000906110db90830184610dc2565b9695505050505050565b6000602082840312156110f757600080fd5b815161059281610d6b56fea2646970667358221220072ebe7fd001972ef71b715e8d5484c532e7e42da9974e097d9dad730a56297764736f6c63430008180033a264697066735822122084a0dbaf788a512e9dd0091ff554851d98c83d5c195e24a38295d150e7d7373064736f6c63430008180033",
    "linkReferences": {}
  },
  "methodIdentifiers": {
    "createSongContract(string,uint256)": "0d012e4c",
    "getSong(uint256)": "42acaa66",
    "getSongCount()": "ca487ad9",
    "getSongOwner(uint256)": "841759fc",
    "getSongPrice(uint256)": "ab4e2b2f",
    "mintSong(uint256,address)": "a90e815b",
    "withdraw()": "3ccfd60b"
  },
  "id": 41
}